{
  "_format": "hh-sol-artifact-1",
  "contractName": "Toadzgotchi",
  "sourceName": "contracts/Toadzgotchi.sol",
  "abi": [
    {
      "inputs": [],
      "stateMutability": "nonpayable",
      "type": "constructor"
    },
    {
      "inputs": [],
      "name": "_toadzgotchiPetsContractAddress",
      "outputs": [
        {
          "internalType": "address",
          "name": "",
          "type": "address"
        }
      ],
      "stateMutability": "view",
      "type": "function"
    },
    {
      "inputs": [],
      "name": "fetchToadStats",
      "outputs": [
        {
          "components": [
            {
              "internalType": "bool",
              "name": "isVibing",
              "type": "bool"
            },
            {
              "internalType": "uint256",
              "name": "startVibingTime",
              "type": "uint256"
            },
            {
              "internalType": "int256",
              "name": "isFedValue",
              "type": "int256"
            },
            {
              "internalType": "uint256",
              "name": "lastFeedBlock",
              "type": "uint256"
            },
            {
              "internalType": "int256",
              "name": "isHappyValue",
              "type": "int256"
            },
            {
              "internalType": "uint256",
              "name": "lastPlayBlock",
              "type": "uint256"
            },
            {
              "internalType": "int256",
              "name": "isRestedValue",
              "type": "int256"
            },
            {
              "internalType": "uint256",
              "name": "lastSleepBlock",
              "type": "uint256"
            },
            {
              "internalType": "uint256",
              "name": "toadXP",
              "type": "uint256"
            },
            {
              "internalType": "uint256",
              "name": "toadLevel",
              "type": "uint256"
            },
            {
              "internalType": "bool",
              "name": "isDead",
              "type": "bool"
            }
          ],
          "internalType": "struct Toadzgotchi.ToadStats[]",
          "name": "",
          "type": "tuple[]"
        }
      ],
      "stateMutability": "view",
      "type": "function"
    },
    {
      "inputs": [
        {
          "internalType": "uint256",
          "name": "giveXP",
          "type": "uint256"
        }
      ],
      "name": "grantXP",
      "outputs": [],
      "stateMutability": "nonpayable",
      "type": "function"
    },
    {
      "inputs": [],
      "name": "ownsToadzgotchis",
      "outputs": [
        {
          "internalType": "bool",
          "name": "",
          "type": "bool"
        }
      ],
      "stateMutability": "view",
      "type": "function"
    },
    {
      "inputs": [],
      "name": "readToadHunger",
      "outputs": [
        {
          "internalType": "int256",
          "name": "",
          "type": "int256"
        }
      ],
      "stateMutability": "view",
      "type": "function"
    },
    {
      "inputs": [],
      "name": "readToadPlay",
      "outputs": [
        {
          "internalType": "int256",
          "name": "",
          "type": "int256"
        }
      ],
      "stateMutability": "view",
      "type": "function"
    },
    {
      "inputs": [],
      "name": "readToadSleep",
      "outputs": [
        {
          "internalType": "int256",
          "name": "",
          "type": "int256"
        }
      ],
      "stateMutability": "view",
      "type": "function"
    },
    {
      "inputs": [],
      "name": "returnMsgSender",
      "outputs": [
        {
          "internalType": "address",
          "name": "",
          "type": "address"
        }
      ],
      "stateMutability": "view",
      "type": "function"
    },
    {
      "inputs": [
        {
          "internalType": "uint256",
          "name": "",
          "type": "uint256"
        }
      ],
      "name": "toadStats",
      "outputs": [
        {
          "internalType": "bool",
          "name": "isVibing",
          "type": "bool"
        },
        {
          "internalType": "uint256",
          "name": "startVibingTime",
          "type": "uint256"
        },
        {
          "internalType": "int256",
          "name": "isFedValue",
          "type": "int256"
        },
        {
          "internalType": "uint256",
          "name": "lastFeedBlock",
          "type": "uint256"
        },
        {
          "internalType": "int256",
          "name": "isHappyValue",
          "type": "int256"
        },
        {
          "internalType": "uint256",
          "name": "lastPlayBlock",
          "type": "uint256"
        },
        {
          "internalType": "int256",
          "name": "isRestedValue",
          "type": "int256"
        },
        {
          "internalType": "uint256",
          "name": "lastSleepBlock",
          "type": "uint256"
        },
        {
          "internalType": "uint256",
          "name": "toadXP",
          "type": "uint256"
        },
        {
          "internalType": "uint256",
          "name": "toadLevel",
          "type": "uint256"
        },
        {
          "internalType": "bool",
          "name": "isDead",
          "type": "bool"
        }
      ],
      "stateMutability": "view",
      "type": "function"
    },
    {
      "inputs": [
        {
          "internalType": "uint256",
          "name": "",
          "type": "uint256"
        }
      ],
      "name": "toadz",
      "outputs": [
        {
          "internalType": "uint256",
          "name": "",
          "type": "uint256"
        }
      ],
      "stateMutability": "view",
      "type": "function"
    },
    {
      "inputs": [],
      "name": "toadzgotchiIdsOwned",
      "outputs": [
        {
          "internalType": "uint256[]",
          "name": "",
          "type": "uint256[]"
        }
      ],
      "stateMutability": "view",
      "type": "function"
    }
  ],
  "bytecode": "0x60806040526001805473cc4c41415fc68b2fbf70102742a83cde435e0ca76001600160a01b0319918216811790925560028054909116909117905534801561004657600080fd5b50610caf806100566000396000f3fe608060405234801561001057600080fd5b50600436106100a95760003560e01c80638acb47b4116100715780638acb47b4146101d65780639dd03a57146101de578063c6bc5584146101f3578063c78df11e14610208578063e4d1013a1461021d578063fcc4afe81461022557600080fd5b80631a065307146100ae5780632ebd4531146100c9578063347061f1146100f45780633d724a3f1461010c57806369c14e3c14610112575b600080fd5b6100b6610238565b6040519081526020015b60405180910390f35b6001546100dc906001600160a01b031681565b6040516001600160a01b0390911681526020016100c0565b6100fc610281565b60405190151581526020016100c0565b336100dc565b61017f610120366004610ad5565b600360208190526000918252604090912080546001820154600283015493830154600484015460058501546006860154600787015460088801546009890154600a9099015460ff9889169a97999798969795969495939492939192168b565b604080519b15158c5260208c019a909a52988a01979097526060890195909552608088019390935260a087019190915260c086015260e08501526101008401526101208301521515610140820152610160016100c0565b6100b6610318565b6101e6610361565b6040516100c09190610b9f565b610206610201366004610ad5565b610445565b005b6102106106f8565b6040516100c09190610aed565b6100b66109ab565b6100b6610233366004610ad5565b6109f4565b6000600360008060008154811061025f57634e487b7160e01b600052603260045260246000fd5b9060005260206000200154815260200190815260200160002060060154905090565b6002546040516326eaff9b60e01b815233600482015260009182916001600160a01b03909116906326eaff9b9060240160006040518083038186803b1580156102c957600080fd5b505afa1580156102dd573d6000803e3d6000fd5b505050506040513d6000823e601f3d908101601f191682016040526103059190810190610a15565b5111156103125750600190565b50600090565b6000600360008060008154811061033f57634e487b7160e01b600052603260045260246000fd5b9060005260206000200154815260200190815260200160002060020154905090565b606061036b610281565b15156001146103c15760405162461bcd60e51b815260206004820152601f60248201527f53656e64657220646f65736e2774206f776e20546f61647a676f74636869730060448201526064015b60405180910390fd5b6002546040516326eaff9b60e01b81523360048201526001600160a01b03909116906326eaff9b9060240160006040518083038186803b15801561040457600080fd5b505afa158015610418573d6000803e3d6000fd5b505050506040513d6000823e601f3d908101601f191682016040526104409190810190610a15565b905090565b600080600360008060008154811061046d57634e487b7160e01b600052603260045260246000fd5b9060005260206000200154815260200190815260200160002060090154836104959190610bfb565b90508060036000806000815481106104bd57634e487b7160e01b600052603260045260246000fd5b90600052602060002001548152602001908152602001600020600801546104e49190610be3565b600360008060008154811061050957634e487b7160e01b600052603260045260246000fd5b90600052602060002001548152602001908152602001600020600801819055506064600360008060008154811061055057634e487b7160e01b600052603260045260246000fd5b9060005260206000200154815260200190815260200160002060080154106106f3576064600360008060008154811061059957634e487b7160e01b600052603260045260246000fd5b9060005260206000200154815260200190815260200160002060080154111561060d57606460036000806000815481106105e357634e487b7160e01b600052603260045260246000fd5b906000526020600020015481526020019081526020016000206008015461060a9190610c1b565b91505b600360008060008154811061063257634e487b7160e01b600052603260045260246000fd5b9060005260206000200154815260200190815260200160002060090154600161065b9190610be3565b600360008060008154811061068057634e487b7160e01b600052603260045260246000fd5b90600052602060002001548152602001908152602001600020600901819055508160006106ad9190610be3565b60036000806000815481106106d257634e487b7160e01b600052603260045260246000fd5b90600052602060002001548152602001908152602001600020600801819055505b505050565b6060610702610281565b15156001146107535760405162461bcd60e51b815260206004820152601f60248201527f53656e64657220646f65736e2774206f776e20546f61647a676f74636869730060448201526064016103b8565b6002546040516326eaff9b60e01b81523360048201526000916001600160a01b0316906326eaff9b9060240160006040518083038186803b15801561079757600080fd5b505afa1580156107ab573d6000803e3d6000fd5b505050506040513d6000823e601f3d908101601f191682016040526107d39190810190610a15565b90506000815167ffffffffffffffff8111156107ff57634e487b7160e01b600052604160045260246000fd5b60405190808252806020026020018201604052801561089157816020015b61087e6040518061016001604052806000151581526020016000815260200160008152602001600081526020016000815260200160008152602001600081526020016000815260200160008152602001600081526020016000151581525090565b81526020019060019003908161081d5790505b50905060005b82518110156109a457600360008483815181106108c457634e487b7160e01b600052603260045260246000fd5b6020908102919091018101518252818101929092526040908101600020815161016081018352815460ff908116151582526001830154948201949094526002820154928101929092526003810154606083015260048101546080830152600581015460a0830152600681015460c0830152600781015460e083015260088101546101008301526009810154610120830152600a01549091161515610140820152825183908390811061098657634e487b7160e01b600052603260045260246000fd5b6020026020010181905250808061099c90610c32565b915050610897565b5092915050565b600060036000806000815481106109d257634e487b7160e01b600052603260045260246000fd5b9060005260206000200154815260200190815260200160002060040154905090565b60008181548110610a0457600080fd5b600091825260209091200154905081565b60006020808385031215610a27578182fd5b825167ffffffffffffffff80821115610a3e578384fd5b818501915085601f830112610a51578384fd5b815181811115610a6357610a63610c63565b8060051b604051601f19603f83011681018181108582111715610a8857610a88610c63565b604052828152858101935084860182860187018a1015610aa6578788fd5b8795505b83861015610ac8578051855260019590950194938601938601610aaa565b5098975050505050505050565b600060208284031215610ae6578081fd5b5035919050565b602080825282518282018190526000919060409081850190868401855b82811015610b9257815180511515855286810151878601528581015186860152606080820151908601526080808201519086015260a0808201519086015260c0808201519086015260e0808201519086015261010080820151908601526101208082015190860152610140908101511515908501526101609093019290850190600101610b0a565b5091979650505050505050565b6020808252825182820181905260009190848201906040850190845b81811015610bd757835183529284019291840191600101610bbb565b50909695505050505050565b60008219821115610bf657610bf6610c4d565b500190565b600082610c1657634e487b7160e01b81526012600452602481fd5b500490565b600082821015610c2d57610c2d610c4d565b500390565b6000600019821415610c4657610c46610c4d565b5060010190565b634e487b7160e01b600052601160045260246000fd5b634e487b7160e01b600052604160045260246000fdfea2646970667358221220528c8a9571e0a7b9b813528c6f6b344a199024539fbfb0b4dface76aeb4f426b64736f6c63430008040033",
  "linkReferences": {},
  "deployedLinkReferences": {}
}