{
  "_format": "hh-sol-artifact-1",
  "contractName": "Toadzgotchi",
  "sourceName": "contracts/Toadzgotchi.sol",
  "abi": [
    {
      "inputs": [],
      "stateMutability": "nonpayable",
      "type": "constructor"
    },
    {
      "inputs": [],
      "name": "calcDecayFeed",
      "outputs": [
        {
          "internalType": "uint256",
          "name": "",
          "type": "uint256"
        }
      ],
      "stateMutability": "view",
      "type": "function"
    },
    {
      "inputs": [],
      "name": "calcDecayPlay",
      "outputs": [
        {
          "internalType": "uint256",
          "name": "",
          "type": "uint256"
        }
      ],
      "stateMutability": "view",
      "type": "function"
    },
    {
      "inputs": [],
      "name": "calcDecaySleep",
      "outputs": [
        {
          "internalType": "uint256",
          "name": "",
          "type": "uint256"
        }
      ],
      "stateMutability": "view",
      "type": "function"
    },
    {
      "inputs": [],
      "name": "feedToad",
      "outputs": [],
      "stateMutability": "nonpayable",
      "type": "function"
    },
    {
      "inputs": [],
      "name": "getminutes",
      "outputs": [
        {
          "internalType": "uint256",
          "name": "",
          "type": "uint256"
        }
      ],
      "stateMutability": "view",
      "type": "function"
    },
    {
      "inputs": [
        {
          "internalType": "uint256",
          "name": "giveXP",
          "type": "uint256"
        }
      ],
      "name": "grantXP",
      "outputs": [],
      "stateMutability": "nonpayable",
      "type": "function"
    },
    {
      "inputs": [],
      "name": "playToad",
      "outputs": [],
      "stateMutability": "nonpayable",
      "type": "function"
    },
    {
      "inputs": [],
      "name": "readToadHunger",
      "outputs": [
        {
          "internalType": "uint256",
          "name": "",
          "type": "uint256"
        }
      ],
      "stateMutability": "view",
      "type": "function"
    },
    {
      "inputs": [],
      "name": "readToadPlay",
      "outputs": [
        {
          "internalType": "uint256",
          "name": "",
          "type": "uint256"
        }
      ],
      "stateMutability": "view",
      "type": "function"
    },
    {
      "inputs": [],
      "name": "readToadSleep",
      "outputs": [
        {
          "internalType": "uint256",
          "name": "",
          "type": "uint256"
        }
      ],
      "stateMutability": "view",
      "type": "function"
    },
    {
      "inputs": [],
      "name": "readToadStats",
      "outputs": [
        {
          "components": [
            {
              "internalType": "bool",
              "name": "isVibing",
              "type": "bool"
            },
            {
              "internalType": "uint256",
              "name": "startVibingTime",
              "type": "uint256"
            },
            {
              "internalType": "uint256",
              "name": "isFedValue",
              "type": "uint256"
            },
            {
              "internalType": "uint256",
              "name": "lastFeedBlock",
              "type": "uint256"
            },
            {
              "internalType": "uint256",
              "name": "isHappyValue",
              "type": "uint256"
            },
            {
              "internalType": "uint256",
              "name": "lastPlayBlock",
              "type": "uint256"
            },
            {
              "internalType": "uint256",
              "name": "isRestedValue",
              "type": "uint256"
            },
            {
              "internalType": "uint256",
              "name": "lastSleepBlock",
              "type": "uint256"
            },
            {
              "internalType": "uint256",
              "name": "toadXP",
              "type": "uint256"
            },
            {
              "internalType": "uint256",
              "name": "toadLevel",
              "type": "uint256"
            },
            {
              "internalType": "bool",
              "name": "isDead",
              "type": "bool"
            }
          ],
          "internalType": "struct Toadzgotchi.ToadStats",
          "name": "",
          "type": "tuple"
        }
      ],
      "stateMutability": "view",
      "type": "function"
    },
    {
      "inputs": [],
      "name": "returnMsgSender",
      "outputs": [
        {
          "internalType": "address",
          "name": "",
          "type": "address"
        }
      ],
      "stateMutability": "view",
      "type": "function"
    },
    {
      "inputs": [],
      "name": "sleepToad",
      "outputs": [],
      "stateMutability": "nonpayable",
      "type": "function"
    },
    {
      "inputs": [],
      "name": "startVibing",
      "outputs": [],
      "stateMutability": "nonpayable",
      "type": "function"
    },
    {
      "inputs": [
        {
          "internalType": "address",
          "name": "",
          "type": "address"
        }
      ],
      "name": "toadStats",
      "outputs": [
        {
          "internalType": "bool",
          "name": "isVibing",
          "type": "bool"
        },
        {
          "internalType": "uint256",
          "name": "startVibingTime",
          "type": "uint256"
        },
        {
          "internalType": "uint256",
          "name": "isFedValue",
          "type": "uint256"
        },
        {
          "internalType": "uint256",
          "name": "lastFeedBlock",
          "type": "uint256"
        },
        {
          "internalType": "uint256",
          "name": "isHappyValue",
          "type": "uint256"
        },
        {
          "internalType": "uint256",
          "name": "lastPlayBlock",
          "type": "uint256"
        },
        {
          "internalType": "uint256",
          "name": "isRestedValue",
          "type": "uint256"
        },
        {
          "internalType": "uint256",
          "name": "lastSleepBlock",
          "type": "uint256"
        },
        {
          "internalType": "uint256",
          "name": "toadXP",
          "type": "uint256"
        },
        {
          "internalType": "uint256",
          "name": "toadLevel",
          "type": "uint256"
        },
        {
          "internalType": "bool",
          "name": "isDead",
          "type": "bool"
        }
      ],
      "stateMutability": "view",
      "type": "function"
    }
  ],
  "bytecode": "0x608060405234801561001057600080fd5b50610d5f806100206000396000f3fe608060405234801561001057600080fd5b50600436106100f55760003560e01c80638acb47b411610097578063c6bc558411610066578063c6bc558414610259578063e0e89fcb1461026c578063e4d1013a14610274578063f90d82071461028c57600080fd5b80638acb47b414610229578063a37f68e414610241578063a98effb114610249578063ab8bb6d31461025157600080fd5b80633d724a3f116100d35780633d724a3f146101465780634281fd0b1461015457806378c906601461015e5780637955b8f91461016657600080fd5b80630aa4098f146100fa5780631916fb5e146101185780631a0653071461012e575b600080fd5b610102610294565b60405161010f9190610bf6565b60405180910390f35b61012061038b565b60405190815260200161010f565b33600090815260208190526040902060060154610120565b60405133815260200161010f565b61015c61041f565b005b61015c610571565b6101d2610174366004610b26565b600060208190529081526040902080546001820154600283015460038401546004850154600586015460068701546007880154600889015460098a0154600a909a015460ff998a169a9899979896979596949593949293919291168b565b604080519b15158c5260208c019a909a52988a01979097526060890195909552608088019390935260a087019190915260c086015260e085015261010084015261012083015215156101408201526101600161010f565b33600090815260208190526040902060020154610120565b610120610652565b61015c6106dc565b6101206107c4565b61015c610267366004610b4d565b61084e565b61015c61093f565b33600090815260208190526040902060040154610120565b610120610a86565b6102f56040518061016001604052806000151581526020016000815260200160008152602001600081526020016000815260200160008152602001600081526020016000815260200160008152602001600081526020016000151581525090565b503360009081526020818152604091829020825161016081018452815460ff908116151582526001830154938201939093526002820154938101939093526003810154606084015260048101546080840152600581015460a0840152600681015460c0840152600781015460e084015260088101546101008401526009810154610120840152600a015416151561014082015290565b336000908152602081905260408120600301548190603c906103ad9043610cd2565b6103b890600f610cb3565b6103c29190610c93565b905060006103d1826002610cb3565b33600090815260208190526040812060020154919250908211156103f757506000610418565b33600090815260208190526040902060020154610415908390610cd2565b90505b9392505050565b336000908152602081905260409020600a015460ff161561045b5760405162461bcd60e51b815260040161045290610bd0565b60405180910390fd5b60646104656107c4565b106104a95760405162461bcd60e51b8152602060048201526014602482015273151bd859081a5cc8199d5b1b1e481c1b185e595960621b6044820152606401610452565b60326104b3610652565b116105005760405162461bcd60e51b815260206004820152601c60248201527f546f61642063616e277420706c6179207768696c6520736c65657079000000006044820152606401610452565b61050861038b565b15801561051a57506105186107c4565b155b801561052b5750610529610652565b155b1561054f57336000908152602081905260409020600a01805460ff19166001179055565b3360009081526020819052604090204360059091015561056f604661084e565b565b3360009081526020819052604090205460ff16156105ca5760405162461bcd60e51b8152602060048201526016602482015275546f616420697320616c726561647920766962696e6760501b6044820152606401610452565b3360009081526020818152604091829020805460ff1916600190811782554382820181905560098301919091556064600283018190556003830182905560048301819055600583018290556006830155600790910155815160608101909252602a80835261056f9291610d009083013933600081815260208190526040902060010154610ac3565b336000908152602081905260408120600701548190603c906106749043610cd2565b61067f90600f610cb3565b6106899190610c93565b90506000610698826002610cb3565b33600090815260208190526040812060060154919250908211156106be57506000610418565b33600090815260208190526040902060060154610415908390610cd2565b336000908152602081905260409020600a015460ff161561070f5760405162461bcd60e51b815260040161045290610bd0565b606461071961038b565b106107555760405162461bcd60e51b815260206004820152600c60248201526b151bd859081a5cc8199d5b1b60a21b6044820152606401610452565b61075d61038b565b15801561076f575061076d6107c4565b155b8015610780575061077e610652565b155b156107a457336000908152602081905260409020600a01805460ff19166001179055565b3360009081526020819052604090204360039091015561056f601e61084e565b336000908152602081905260408120600501548190603c906107e69043610cd2565b6107f190600f610cb3565b6107fb9190610c93565b9050600061080a826002610cb3565b336000908152602081905260408120600401549192509082111561083057506000610418565b33600090815260208190526040902060040154610415908390610cd2565b33600090815260208190526040812060090154819061086d9084610c93565b3360009081526020819052604090206008015490915061088e908290610c7b565b33600090815260208190526040902060080181905560641161093a5733600090815260208190526040902060080154606410156108e757336000908152602081905260409020600801546108e490606490610cd2565b91505b33600090815260208190526040902060090154610905906001610c7b565b33600090815260208190526040812060090191909155610926908390610c7b565b336000908152602081905260409020600801555b505050565b336000908152602081905260409020600a015460ff16156109725760405162461bcd60e51b815260040161045290610bd0565b606461097c610652565b106109c05760405162461bcd60e51b8152602060048201526014602482015273151bd859081a5cc8199d5b1b1e481c995cdd195960621b6044820152606401610452565b601e6109ca61038b565b11610a175760405162461bcd60e51b815260206004820152601f60248201527f546f61642063616e277420736c656570207768696c65207374617276696e67006044820152606401610452565b610a1f61038b565b158015610a315750610a2f6107c4565b155b8015610a425750610a40610652565b155b15610a6657336000908152602081905260409020600a01805460ff19166001179055565b3360009081526020819052604090204360079091015561056f603261084e565b336000908152602081905260408120600301548190603c90610aa89043610cd2565b610ab390600f610cb3565b610abd9190610c93565b92915050565b61093a838383604051602401610adb93929190610b65565b60408051601f198184030181529190526020810180516001600160e01b03166307c8121760e01b17905280516a636f6e736f6c652e6c6f67602083016000808483855afa5050505050565b600060208284031215610b37578081fd5b81356001600160a01b0381168114610418578182fd5b600060208284031215610b5e578081fd5b5035919050565b6060815260008451806060840152815b81811015610b925760208188018101516080868401015201610b75565b81811115610ba35782608083860101525b506001600160a01b039490941660208301525060408101919091526080601f909201601f19160101919050565b6020808252600c908201526b151bd859081a5cc81919585960a21b604082015260600190565b81511515815261016081016020830151602083015260408301516040830152606083015160608301526080830151608083015260a083015160a083015260c083015160c083015260e083015160e083015261010080840151818401525061012080840151818401525061014080840151610c738285018215159052565b505092915050565b60008219821115610c8e57610c8e610ce9565b500190565b600082610cae57634e487b7160e01b81526012600452602481fd5b500490565b6000816000190483118215151615610ccd57610ccd610ce9565b500290565b600082821015610ce457610ce4610ce9565b500390565b634e487b7160e01b600052601160045260246000fdfe272573272068617320737461727465642067616d6520617420626c6f636b206e756d6265722027257327a26469706673582212208c5c816064c1a0f19fabc1460ccb9c3c32d1f278342a70a2446239ecf6f5c9a564736f6c63430008040033",
  "linkReferences": {},
  "deployedLinkReferences": {}
}