{
  "_format": "hh-sol-artifact-1",
  "contractName": "Toadzgotchi",
  "sourceName": "contracts/Toadzgotchi.sol",
  "abi": [
    {
      "inputs": [],
      "stateMutability": "nonpayable",
      "type": "constructor"
    },
    {
      "inputs": [
        {
          "internalType": "uint256",
          "name": "lastActionValue",
          "type": "uint256"
        }
      ],
      "name": "calcDecay",
      "outputs": [
        {
          "internalType": "uint256",
          "name": "",
          "type": "uint256"
        }
      ],
      "stateMutability": "view",
      "type": "function"
    },
    {
      "inputs": [],
      "name": "feedToad",
      "outputs": [],
      "stateMutability": "nonpayable",
      "type": "function"
    },
    {
      "inputs": [],
      "name": "getminutes",
      "outputs": [
        {
          "internalType": "uint256",
          "name": "",
          "type": "uint256"
        }
      ],
      "stateMutability": "view",
      "type": "function"
    },
    {
      "inputs": [
        {
          "internalType": "uint256",
          "name": "giveXP",
          "type": "uint256"
        }
      ],
      "name": "grantXP",
      "outputs": [],
      "stateMutability": "nonpayable",
      "type": "function"
    },
    {
      "inputs": [],
      "name": "playToad",
      "outputs": [],
      "stateMutability": "nonpayable",
      "type": "function"
    },
    {
      "inputs": [],
      "name": "readToadStats",
      "outputs": [
        {
          "components": [
            {
              "internalType": "bool",
              "name": "isVibing",
              "type": "bool"
            },
            {
              "internalType": "uint256",
              "name": "startVibingTime",
              "type": "uint256"
            },
            {
              "internalType": "uint256",
              "name": "isFedValue",
              "type": "uint256"
            },
            {
              "internalType": "uint256",
              "name": "lastFeedBlock",
              "type": "uint256"
            },
            {
              "internalType": "uint256",
              "name": "isHappyValue",
              "type": "uint256"
            },
            {
              "internalType": "uint256",
              "name": "lastPlayBlock",
              "type": "uint256"
            },
            {
              "internalType": "uint256",
              "name": "isRestedValue",
              "type": "uint256"
            },
            {
              "internalType": "uint256",
              "name": "lastSleepBlock",
              "type": "uint256"
            },
            {
              "internalType": "uint256",
              "name": "toadXP",
              "type": "uint256"
            },
            {
              "internalType": "uint256",
              "name": "toadLevel",
              "type": "uint256"
            }
          ],
          "internalType": "struct Toadzgotchi.ToadStats",
          "name": "",
          "type": "tuple"
        }
      ],
      "stateMutability": "view",
      "type": "function"
    },
    {
      "inputs": [],
      "name": "sleepToad",
      "outputs": [],
      "stateMutability": "nonpayable",
      "type": "function"
    },
    {
      "inputs": [],
      "name": "startVibing",
      "outputs": [],
      "stateMutability": "nonpayable",
      "type": "function"
    },
    {
      "inputs": [
        {
          "internalType": "address",
          "name": "",
          "type": "address"
        }
      ],
      "name": "toadStats",
      "outputs": [
        {
          "internalType": "bool",
          "name": "isVibing",
          "type": "bool"
        },
        {
          "internalType": "uint256",
          "name": "startVibingTime",
          "type": "uint256"
        },
        {
          "internalType": "uint256",
          "name": "isFedValue",
          "type": "uint256"
        },
        {
          "internalType": "uint256",
          "name": "lastFeedBlock",
          "type": "uint256"
        },
        {
          "internalType": "uint256",
          "name": "isHappyValue",
          "type": "uint256"
        },
        {
          "internalType": "uint256",
          "name": "lastPlayBlock",
          "type": "uint256"
        },
        {
          "internalType": "uint256",
          "name": "isRestedValue",
          "type": "uint256"
        },
        {
          "internalType": "uint256",
          "name": "lastSleepBlock",
          "type": "uint256"
        },
        {
          "internalType": "uint256",
          "name": "toadXP",
          "type": "uint256"
        },
        {
          "internalType": "uint256",
          "name": "toadLevel",
          "type": "uint256"
        }
      ],
      "stateMutability": "view",
      "type": "function"
    }
  ],
  "bytecode": "0x608060405234801561001057600080fd5b50610b4c806100206000396000f3fe608060405234801561001057600080fd5b50600436106100935760003560e01c80637955b8f9116100665780637955b8f914610153578063a98effb114610202578063c6bc55841461020a578063e0e89fcb1461021d578063f90d82071461022557600080fd5b80630aa4098f146100985780634281fd0b14610120578063613d9caf1461012a57806378c906601461014b575b600080fd5b6100a061022d565b604051610117919081511515815261014081016020830151602083015260408301516040830152606083015160608301526080830151608083015260a083015160a083015260c083015160c083015260e083015160e083015261010080840151818401525061012080840151818401525092915050565b60405180910390f35b61012861030d565b005b61013d6101383660046109e5565b610471565b604051908152602001610117565b6101286104cd565b6101b66101613660046109b7565b600060208190529081526040902080546001820154600283015460038401546004850154600586015460068701546007880154600889015460099099015460ff9098169896979596949593949293919290918a565b604080519a15158b5260208b0199909952978901969096526060880194909452608087019290925260a086015260c085015260e084015261010083015261012082015261014001610117565b6101286105ad565b6101286102183660046109e5565b6106c9565b6101286107ba565b61013d610917565b6102856040518061014001604052806000151581526020016000815260200160008152602001600081526020016000815260200160008152602001600081526020016000815260200160008152602001600081525090565b503360009081526020818152604091829020825161014081018452815460ff16151581526001820154928101929092526002810154928201929092526003820154606082015260048201546080820152600582015460a0820152600682015460c0820152600782015460e0820152600882015461010082015260099091015461012082015290565b3360009081526020819052604090206004015460649061032c90610471565b106103755760405162461bcd60e51b8152602060048201526014602482015273151bd859081a5cc8199d5b1b1e481c1b185e595960621b60448201526064015b60405180910390fd5b3360009081526020819052604090206006015460329061039490610471565b116103e15760405162461bcd60e51b815260206004820152601c60248201527f546f61642063616e277420706c6179207768696c6520736c6565707900000000604482015260640161036c565b336000908152602081905260409020600201546103fd90610471565b15801561042357503360009081526020819052604090206004015461042190610471565b155b801561044857503360009081526020819052604090206006015461044690610471565b155b1561044f57565b3360009081526020819052604090204360059091015561046f60466106c9565b565b600080603c6104808443610abf565b61048b90600f610aa0565b6104959190610a80565b905060006104a4826002610aa0565b90506000848211156104b8575060006104c5565b6104c28286610abf565b90505b949350505050565b3360009081526020819052604090205460ff16156105265760405162461bcd60e51b8152602060048201526016602482015275546f616420697320616c726561647920766962696e6760501b604482015260640161036c565b3360009081526020818152604091829020805460ff19166001908117825543828201819055600983019190915560036002830181905580830182905560048301819055600583018290556006830155600790910155815160608101909252602a80835261046f9291610aed9083013933600081815260208190526040902060010154610954565b336000908152602081905260409020600201546064906105cc90610471565b106106085760405162461bcd60e51b815260206004820152600c60248201526b151bd859081a5cc8199d5b1b60a21b604482015260640161036c565b3360009081526020819052604090206002015461062490610471565b1580159061064c57503360009081526020819052604090206004015461064990610471565b15155b801561067257503360009081526020819052604090206006015461066f90610471565b15155b6106ad5760405162461bcd60e51b815260206004820152600c60248201526b151bd859081a5cc81119585960a21b604482015260640161036c565b3360009081526020819052604090204360039091015561046f601e5b3360009081526020819052604081206009015481906106e89084610a80565b33600090815260208190526040902060080154909150610709908290610a68565b3360009081526020819052604090206008018190556064116107b5573360009081526020819052604090206008015460641015610762573360009081526020819052604090206008015461075f90606490610abf565b91505b33600090815260208190526040902060090154610780906001610a68565b336000908152602081905260408120600901919091556107a1908390610a68565b336000908152602081905260409020600801555b505050565b336000908152602081905260409020600601546064906107d990610471565b1061081d5760405162461bcd60e51b8152602060048201526014602482015273151bd859081a5cc8199d5b1b1e481c995cdd195960621b604482015260640161036c565b33600090815260208190526040902060020154601e9061083c90610471565b116108895760405162461bcd60e51b815260206004820152601f60248201527f546f61642063616e277420736c656570207768696c65207374617276696e6700604482015260640161036c565b336000908152602081905260409020600201546108a590610471565b1580156108cb5750336000908152602081905260409020600401546108c990610471565b155b80156108f05750336000908152602081905260409020600601546108ee90610471565b155b156108f757565b3360009081526020819052604090204360079091015561046f60326106c9565b336000908152602081905260408120600301548190603c906109399043610abf565b61094490600f610aa0565b61094e9190610a80565b92915050565b6107b583838360405160240161096c939291906109fd565b60408051601f198184030181529190526020810180516001600160e01b03166307c8121760e01b17905280516a636f6e736f6c652e6c6f67602083016000808483855afa5050505050565b6000602082840312156109c8578081fd5b81356001600160a01b03811681146109de578182fd5b9392505050565b6000602082840312156109f6578081fd5b5035919050565b6060815260008451806060840152815b81811015610a2a5760208188018101516080868401015201610a0d565b81811115610a3b5782608083860101525b506001600160a01b039490941660208301525060408101919091526080601f909201601f19160101919050565b60008219821115610a7b57610a7b610ad6565b500190565b600082610a9b57634e487b7160e01b81526012600452602481fd5b500490565b6000816000190483118215151615610aba57610aba610ad6565b500290565b600082821015610ad157610ad1610ad6565b500390565b634e487b7160e01b600052601160045260246000fdfe272573272068617320737461727465642067616d6520617420626c6f636b206e756d6265722027257327a2646970667358221220c0308fb9b94b39b32a14f88f01ea583af1259468322aa5c11d1ba5effaf31e3464736f6c63430008040033",
  "linkReferences": {},
  "deployedLinkReferences": {}
}